:020000040800F2
:1000000000500020AD0300080000000000000000C8
:1000100000000000000000000000000000000000E0
:1000200000000000000000000000000000000000D0
:100030000000000000000000000000000D040008A7
:100040000050002079150008FD030008FF03000898
:100050000104000803040008050400080000000073
:10006000000000000000000000000000070400087D
:1000700009040008000000000B0400080D0400083B
:10008000C1150008C1150008C1150008C1150008F8
:10009000C1150008C1150008C1150008C1150008E8
:1000A000C1150008C1150008C1150008C1150008D8
:1000B000C1150008C1150008C1150008C1150008C8
:1000C000C1150008C1150008C1150008C1150008B8
:1000D000C1150008C1150008C1150008C1150008A8
:1000E000C1150008C1150008C1150008C115000898
:1000F000C1150008C1150008C1150008C115000888
:10010000C1150008C1150008C1150008C115000877
:10011000C1150008C1150008C1150008C115000867
:10012000C1150008C1150008C11500080000000035
:1001300000000000000000000000000000000000BF
:0C01400000000000000000005FF808F163
:10014C000348044B834202D0034B03B1184770475A
:10015C001400002014000020000000000548064B8D
:10016C001B1AD90F01EBA301491002D0034B03B1A9
:10017C0018477047140000201400002000000000F5
:10018C0010B5064C237843B9FFF7DAFF044B13B1D3
:10019C000448AFF300800123237010BD1800002029
:1001AC00000000003816000808B5054B1BB10549C6
:1001BC000548AFF30080BDE80840FFF7CFBF00BF94
:1001CC00000000001C0000203816000808B5054C83
:1001DC0020464FF4005100F0B2FD962000F0CAF911
:1001EC00F6E700BF0010014000B591B024220021B9
:1001FC0007A801F013FA1422002101A801F00EFA4D
:10020C00022301210693102306A8CDE90A1300F05E
:10021C00CBF9014608B1FFF7D9FF0F23CDE9030055
:10022C00CDE90130059001A800F080FB0028F2D147
:10023C0011B05DF804FB00002DE9F04188B000F02E
:10024C0075F9FFF7D1FF10224B4C00210DEB02008A
:10025C0001F0E4F9A369002243F01003A361A36940
:10026C004FF4005103F010030193019BA369434821
:10027C0043F00803A361A369022603F00803029369
:10028C00029BA369002543F00403A361A3694FF407
:10029C00005803F004030393039B00F04BFD012370
:1002AC004FF48057354804A9CDE90483CDE90656AF
:1002BC0000F0F8FB04A932480696CDE9047500F06D
:1002CC00F1FB00F051F9394606462D4800F02CFDA3
:1002DC00012831D14FF4E1332A482B4AC0E90255A9
:1002EC00C0E900230C230561C0E90535C56100F0A8
:1002FC001BFF08B1FFF76AFF00F0F2FF234C1F4D04
:10030C0000F032F92368C01AB0F5FA7F07D300F079
:10031C002BF94FF400512060284600F010FD00F03E
:10032C0023F9801B3128EBD900F0ECFF0328E7D030
:10033C0000F01AF90646E3E7154E164BD6F80028DE
:10034C009A42D7D141460D4800F080FC39460C4802
:10035C0000F07CFC00F0B6F8A560D6F8003883F30A
:10036C000888BFF35F8F0C4B0C4A9A60BFF34F8F1A
:10037C00D6F804389847BDE7001002400010014041
:10038C00000C014034000020003801400000002027
:10039C00002000080050002000ED00E000280008BC
:1003AC0008B50E4B0E48DA1C121AC11E22F00302BD
:1003BC00994288BF00220B4901F022F90A4B0B48E5
:1003CC00DA1C121AC11E22F00302994288BF0022C5
:1003DC00002101F023F9FFF72FFF00BF14000020CC
:1003EC000000002050170008180100201800002001
:1003FC00FEE7FEE7FEE7FEE7FEE770477047704753
:10040C0000F0A6B80E4B82B09A6942F001029A61D4
:10041C009A6902F001020092009ADA6942F0805265
:10042C00DA61DB69074A03F080530193019B53683F
:10043C0023F0E06343F00073536002B0704700BFD9
:10044C00001002400000014010B5044686B0102296
:10045C00002102A801F0E2F82268174B9A4228D139
:10046C0003F558439A69154842F480429A619A6997
:10047C0002A902F480420092009A9A6942F00402A6
:10048C009A619B694FF4007203F004030193019B82
:10049C000223CDE902230323059300F003FB4FF461
:1004AC00806100230548CDE9021302A9049300F0F2
:1004BC00F9FA06B010BD00BF003801400008014039
:1004CC007047000010B54FF0FF320024044B1A6146
:1004DC001C61DA60DC60FFF7F3FF204610BD00BF43
:1004EC000010024038B50E4B05461A784FF47A735B
:1004FC00B3FBF2F30B4A1068B0FBF3F000F06AFCAC
:10050C00044658B90F2D09D8024629464FF0FF3042
:10051C0000F030FC2046044B1D6038BD0120FCE788
:10052C0008000020100000200C000020074A08B52D
:10053C001368032043F01003136000F009FC0F2034
:10054C00FFF7D0FFFFF75EFF002008BD0020024040
:10055C00034A044B11681B780B441360704700BFAF
:10056C007C00002008000020014B1868704700BF79
:10057C007C00002038B50446FFF7F6FF0546631CE7
:10058C001EBF044B1B78E418FFF7EEFF431BA3427E
:10059C00FAD338BD08000020024B1868C0F30B00DA
:1005AC00704700BF002004E02DE9F341054638B345
:1005BC000368DB0710D42B689F075ED42B681907E0
:1005CC0000F195802B685A0700F1C180EB69002B74
:1005DC0040F02C81002029E0904C636803F00C0360
:1005EC00042B07D0636803F00C03082B0AD1636853
:1005FC00DE0307D523689C03DDD56B68002BDAD1AD
:10060C00012013E06B68B3F5803F12D1236843F4EB
:10061C0080332360FFF7A8FF064623689803CAD4EB
:10062C00FFF7A2FF801B6428F7D9032002B0BDE8B6
:10063C00F0819BB9236823F480332360236823F46F
:10064C0080232360FFF790FF064623689903B2D5F9
:10065C00FFF78AFF801B6428F7D9E6E7B3F5A02FD4
:10066C00236803D143F480232360CFE723F4803342
:10067C002360236823F48023CBE7684C636813F072
:10068C000C0F07D0636803F00C03082B10D16368C0
:10069C00DA030DD423689B0702D52B69012BAFD14C
:1006AC0023686A6923F0F80343EAC203236085E7F1
:1006BC002A695B4B6AB101221A60FFF755FF0646A7
:1006CC0023689F07ECD4FFF74FFF801B0228F7D954
:1006DC00ABE71A60FFF748FF0646236898077FF5DB
:1006EC006DAFFFF741FF801B0228F6D99DE7AA6981
:1006FC004A4E4B4BE2B10122C3F88024FFF734FF82
:10070C000446736A9B070DD54FF4FA52454B1B6890
:10071C00B3FBF2F3019300BF019B5A1E0192002B15
:10072C00F9D14FE7FFF720FF001B0228E9D97CE73E
:10073C00C3F88024FFF718FF0446736A9F077FF500
:10074C0041AFFFF711FF001B0228F6D96DE7334CC0
:10075C00E369D80024D40127E36943F08053E361B3
:10076C00E36903F080530093009B2F4E3368D90547
:10077C0018D5EB68012B26D1236A43F001032362C1
:10078C00FFF7F2FE41F288380646236A9B073FD5F5
:10079C00002F3FF41BAFE36923F08053E36115E7AF
:1007AC000027E2E7336843F480733360FFF7DCFE25
:1007BC0080463368DA05DCD4FFF7D6FEA0EB0800E0
:1007CC006428F6D931E7ABB9236A41F2883823F0B3
:1007DC0001032362236A23F004032362FFF7C4FEA0
:1007EC000646236A9807D3D5FFF7BEFE801B40450B
:1007FC00F7D91AE7052B236A03D143F004032362CC
:10080C00BAE723F001032362236A23F00403B6E75B
:10081C00FFF7AAFE801B4045B7D906E7001002403F
:10082C000000424210000020007000402A4C626818
:10083C0002F00C02082A3ED00022022B274B1A662B
:10084C002CD1FFF791FE06462368990120D42B6A20
:10085C00B3F5803F05D16268A96822F400320A43DF
:10086C006260696A62680B4322F4741213430122BA
:10087C0063601A4B1A66FFF777FE054623689A01E8
:10088C003FF5A8AEFFF770FE401B0228F6D9CCE668
:10089C00FFF76AFE801B0228D6D9C6E6FFF764FE76
:1008AC00054623689B017FF595AEFFF75DFE401B67
:1008BC000228F6D9B9E6012B3FF4A2AE60682B6A88
:1008CC0000F480329A427FF49BAE6B6A00F4701095
:1008DC00C01A18BF0120A9E60010024000004242D5
:1008EC000D4A536803F00C01082912D10B48C3F3CD
:1008FC008341DB03405C09D55368094AC3F3404389
:10090C005043084AD35CB0FBF3F07047064B584396
:10091C0070470348704700BF001002405216000891
:10092C0000127A005016000800093D002DE9F04134
:10093C000D46044610B90120BDE8F081444A136805
:10094C0003F007038B4228D321688E0730D4CA07E3
:10095C0043D43F4A136803F00703AB4265D82268BF
:10096C003C4D12F0040F6CD1130706D56B6822694D
:10097C0023F4605343EAC2036B60FFF7B1FF6B686B
:10098C00354AC3F30313D35CD840344B1860344B53
:10099C001868FFF7A7FD0020CEE7136823F00703C4
:1009AC000B431360136803F007038B42C3D1CBE7EF
:1009BC00284B11F0040F1EBF5A6842F4E0625A60D3
:1009CC00080742BF5A6842F460525A605A68A068DD
:1009DC0022F0F00202435A60B9E762681D4E012A08
:1009EC0033681AD113F4003FA5D0736841F28838EC
:1009FC0023F0030313437360FFF7B6FD07467368D8
:100A0C00626803F00C03B3EB820FA2D0FFF7ACFDCE
:100A1C00C01B4045F3D903208EE7022A02D113F004
:100A2C00007FE1E713F0020FDEE7136823F0070302
:100A3C002B431360136803F00703AB427FF47BAFC7
:100A4C008DE76B68E16823F4E0630B436B608BE725
:100A5C0000200240001002406A160008100000201E
:100A6C000C000020044B054A5B68C3F30223D35CE3
:100A7C00034A1068D8407047001002406216000804
:100A8C0010000020044B054A5B68C3F3C223D35CFF
:100A9C00034A1068D84070470010024062160008E4
:100AAC00100000202DE9F74F00244FF00F0E2646C2
:100ABC00DFF884C1614B00F104080A6832FA06F5CC
:100ACC0002D103B0BDE8F08F012505FA06F702EA62
:100ADC00070537EA020276D14A68032A07D8013A99
:100AEC00022A00F28380DFE802F091969C00122A21
:100AFC0000F0948069D8112A00F08A80FF2D94BFF1
:100B0C008146C1464FEA8602D9F8007088BF203A68
:100B1C000EFA02FA27EA0A0704FA02F21743C9F896
:100B2C000070D1F8049019F0805F4CD0DCF81820DC
:100B3C0026F0030742F00102CCF81820DCF818204C
:100B4C0007F1804702F00102019207F5803706F0A9
:100B5C00030A019A4FEA8A0ABA680EFA0AFB22EAD9
:100B6C000B0B374A904260D002F5806290425ED007
:100B7C0002F5806290425CD002F58062904214BF14
:100B8C000422032202FA0AF242EA0B02BA609A68C1
:100B9C0019F4801F14BF2A43AA439A60DA6819F427
:100BAC00001F14BF2A43AA43DA605A6819F4003FA5
:100BBC0014BF2A43AA435A601A6819F4803F14BF21
:100BCC002A43AA431A60013677E7DFF878904A4542
:100BDC000CD014D8A9F580194A4507D009F570290D
:100BEC004A4503D0A9F580194A4587D18A68D2B104
:100BFC00012A4FF008040CBF076147617EE7DFF85C
:100C0C0048904A45F2D009F58039EDE7CC6875E794
:100C1C00CC68043472E7CC6808346FE7CC680C34C9
:100C2C006CE700246AE7042468E70022AAE70122A3
:100C3C00A8E70222A6E700BF001002400004014012
:100C4C000008014000002210000031102DE9F74F80
:100C5C004FF0040B00224FF0010A4FF00F0800EB8D
:100C6C000B0301932E4B31FA02F402D103B0BDE811
:100C7C00F08F0AFA02F70F4049D022F0030404F176
:100C8C00804404F5803402F0030CA5684FEA8C0C08
:100C9C0008FA0CF909EA050E224DA84239D005F5DF
:100CAC008065A84237D005F58065A84235D005F59A
:100CBC008065A84214BF0425032505FA0CF575457B
:100CCC006FEA07060FD11D6835401D605D68354021
:100CDC005D60DD683540DD609D6835409D60A568D0
:100CEC0025EA0905A560FF2F94BF0746019F4FEA2F
:100CFC0082043D6888BF203C08FA04FC25EA0C05F8
:100D0C000BFA04F425433D60C4683440C4600132DE
:100D1C00A9E70025D1E70125CFE70225CDE700BFE4
:100D2C0000040140000801408368194214BF0120EF
:100D3C00002070470AB1016170470904FBE7C368E2
:100D4C0001EA030221EA030141EA02410161704711
:100D5C0007490302CA6803F4E06322F4E062120458
:100D6C00120C134343F0BF6343F40033CB60704762
:100D7C0000ED00E0154B30B5DC68C4F30224C4F17F
:100D8C000703251D042B28BF0423062D4FF0FF3528
:100D9C0094BF0024033C05FA03F321EA0303A540A6
:100DAC0022EA0502A340002843EA0203ACBF00F18B
:100DBC006040074A4FEA0313DBB2ABBF00F561405A
:100DCC0000F00F0080F80033135430BD00ED00E04C
:100DDC0014ED00E00138B0F1807F0BD24FF0E0232E
:100DEC00F021054A586182F82310002007229861EF
:100DFC001A6170470120704700ED00E0114AD3687A
:100E0C0013F0100305D01049CB6943F00203CB61FA
:100E1C001023D268500706D50B4943F00403CA6966
:100E2C0042F00102CA61074AD169C90708D50648D0
:100E3C00C16941F00401C161D16921F00101D161A5
:100E4C00D36070470020024080000020064B1869D8
:100E5C0010F0800007D0054A5A6002F188325A60BF
:100E6C001869C0F3C0107047002002402301674589
:100E7C00034A0020136943F080031361704700BFDD
:100E8C000020024070B50546FFF76EFB0646114C7C
:100E9C00E368D80712D4E368990644BF2023E360C3
:100EAC00E368DA0606D4E369DB0703D4E06810F0E4
:100EBC00040007D0FFF7A2FF012003E06B1CE7D072
:100ECC000DB9032070BDFFF74FFB801BA842DFD983
:100EDC00F7E700BF002002402DE9F84FDFF894A09F
:100EEC001F469AF818300546012B884691463FD08C
:100EFC0001234CF250308AF81830FFF7C3FF90BB37
:100F0C00012D03D0022D14BF0425022500263346E3
:100F1C00DFF864B03401C4F12001A4F1200207FA17
:100F2C0001F129FA04F4CAF81C300C4327FA02F236
:100F3C001443DBF81020A4B242F00102CBF81020CD
:100F4C004CF2503028F81640FFF79CFFDBF81020CD
:100F5C0022F00102CBF8102028B90136F2B29542EA
:100F6C004FF00003D6D800238AF81830BDE8F88F6C
:100F7C000220FBE780000020002002400022064BEC
:100F8C00DA61064B1A6942F002021A6158611A6959
:100F9C0042F040021A61704780000020002002409D
:100FAC002DE9F041264F05463B7E8846012B44D067
:100FBC0001243C7603684CF25030022B1AD1FFF717
:100FCC0061FF20B1012000233B76BDE8F0811D4C70
:100FDC00F86123694CF2503043F004032361236918
:100FEC0043F040032361FFF74DFF236923F0040313
:100FFC002361E8E7FFF746FF0028E3D14FF0FF330A
:10100C00C8F800302046AE680E4CD5E9023203EB2E
:10101C008223B342D7D93046FFF7B0FF4CF25030A1
:10102C00FFF730FF236923F00203236110B1C8F8E6
:10103C000060C8E706F58066E7E70220C5E700BF59
:10104C00800000200020024010B504460368C168EF
:10105C001A6922F440520A431A6182680069D968FD
:10106C000243606921F4B05121F00C0102430A43A0
:10107C00DA605A69A16922F440720A435A610E4A35
:10108C00934215D1FFF7FEFC192343436268206895
:10109C009200B3FBF2F36422B3FBF2F102FB1133C7
:1010AC001B013233B3FBF2F303EB0113836010BD6E
:1010BC00FFF7D8FCE8E700BF00380140F8B504465C
:1010CC000E4617461D462268136836EA030301D103
:1010DC00002028E06B1CF7D025B1FFF745FAC01BA8
:1010EC008542F0D2226802F10C0353E8003F23F44E
:1010FC00D0730C3242E8003021680028F2D101F1A3
:10110C00140353E8003F23F0010301F1140040E8FD
:10111C000032002AF3D12023032084F8413084F8D4
:10112C00402084F84230F8BD10B5044648B390F81E
:10113C00413003F0FF021BB980F84020FFF784F91F
:10114C002423226884F84130D368204623F40053CA
:10115C00D360FFF779FF236800201A6922F49042CC
:10116C001A615A6922F02A025A61DA6842F4005272
:10117C00DA602023606484F8413084F84230606384
:10118C0010BD0120FCE72DE9F843984690F841305A
:10119C000446202B0E4617463CD100293CD0002A91
:1011AC003AD021230025456480F84130FFF7DCF963
:1011BC00A3688146B3F5805FA784E78403D12369D4
:1011CC000BB935461E46E38C9BB253B943464A468F
:1011DC0040212046FFF772FF50B9202384F841309C
:1011EC0007E043464A4680212046FFF767FF10B1CF
:1011FC000320BDE8F88322684EB935F8023BC3F3EF
:10120C0008035360E18C013989B2E184DBE716F8FD
:10121C00013BF6E70220ECE70120EAE72DE9F84371
:10122C001F4690F842300446202B0E46914643D17F
:10123C00002943D0002A41D022230025456480F8A0
:10124C0042300563FFF790F9A3688046B3F5805FE1
:10125C00A4F82C90A4F82E9003D123690BB9354631
:10126C001E46E08D80B220B9202384F84230BDE8C0
:10127C00F8833B46424620212046FFF71FFFF8B972
:10128C0023684EB95B68C3F3080325F8023BE38D72
:10129C00013B9BB2E385E4E7A268B2F5805F02D024
:1012AC0032B9226922B95968C9B206F8011BEEE7B6
:1012BC00596801F07F01F8E70220D8E70120D6E752
:1012CC000320D4E77047000000280CBF5523AA2345
:1012DC0002480121037000F0E9B800BFA000002013
:1012EC0010B53321054800F0E1F805210446044807
:1012FC0000F0DCF82043C0B210BD00BF7A16000825
:10130C00AD160008F7B55F4C0121204600F0C4F87B
:10131C000328054617D02378303B042B0DD8DFE883
:10132C0003F003154C668F0057497222554800F0A4
:10133C0067F97221534800F0B9F80421534800F0C2
:10134C00B5F82843C5B2284603B0F0BD504A4D4EFF
:10135C0013680C21236053684A48636093683746CE
:10136C00A36000F0A3F800F0ABF800214FF00A0CDA
:10137C00B0FBFCF20CFB1203303307F8013B0346C5
:10138C00092B104601F10101F2D8002248106254D9
:10139C000C44824201D1C9B2CCE714F8017D3378F8
:1013AC0001327B4006F8013B27787B40237016F80E
:1013BC00017C7B4006F8013CEBE7364B314A03F1EC
:1013CC00140153F8040B8B4242F8040BF9D1198821
:1013DC009B781180937017212A4800F067F830230E
:1013EC0023702E23637031230321A370A2E7002006
:1013FC004CF633460190ADF80200FFF765FF04216F
:10140C000DEB010000F048F8019B0446B34213D0E9
:10141C0002210DEB010000F03FF8044314F0FF042F
:10142C0005D1BDF80210019800F04CF80446204696
:10143C00FFF74AFF002CE2D045EA0400C5B27CE776
:10144C00002001908DF80200FFF73EFF04210DEB08
:10145C00010000F021F8012104460DF1020000F01A
:10146C001BF8044314F0FF0405D19DF802100198F9
:10147C0000F048F8044620462C43FFF725FFE5B260
:10148C005BE700BFA0000020B2160008AD160008F4
:10149C0024170008301700080A46014602484FF48A
:1014AC00FA730068FFF7BABE040000200A46014632
:1014BC0002484FF4FA730068FFF765BE0400002081
:1014CC00FFF76AB838B50D4B044698420D4612D357
:1014DC000B4B821C9A420ED2FFF7B8FC50B9034654
:1014EC0021462A460120FFF7F7FC0446FFF7C0FC13
:1014FC002043C0B238BD0420FCE700BF0028000820
:10150C00FFFF010870B5174B054698420E4686B092
:10151C0026D3154B821C9A4222D2C0F309021AB16F
:10152C0000F580629A421BD2FFF790FC0023012247
:10153C00044601A902A8CDE902320193CDE9045673
:10154C00FFF72EFD019B20430133C4B203D044F0BE
:10155C00050006B070BDFFF78BFC2043C0B2F8E766
:10156C000420F6E700280008FFFF0108FFF7AAFE99
:10157C000B480C490C4A002302E0D458C4500433E5
:10158C00C4188C42F9D3094A094C002301E01360BA
:10159C000432A242FBD300F00FF8FEF74DFE704769
:1015AC000000002014000020501700081800002034
:1015BC0018010020FEE7000070B500260C4D0D4C04
:1015CC00641BA410A64209D100F030F800260A4D85
:1015DC000A4C641BA410A64205D170BD55F8043BFF
:1015EC0098470136EEE755F8043B98470136F2E789
:1015FC004817000848170008481700084C1700083F
:10160C000A44914200F1FF3300D1704710B511F834
:10161C00014B914203F8014FF9D110BD034602442E
:10162C00934200D1704703F8011BF9E7F8B500BFEE
:10163C00F8BC08BC9E467047F8B500BFF8BC08BCA7
:04164C009E467047FF
:10165000010202030405060708090A0B0C0D0E0F10
:101660001010000000000102030400000000000050
:10167000000001020304060708092D466C6578790D
:10168000506978656C20426F6F746C6F616465722D
:101690002E20547970652027302720666F722063D2
:1016A0006F6D6D616E6473206C697374000D0A3E1A
:1016B0003E000D0A436F6D6D616E64733A0D0A470B
:1016C0006574206964206F662063686970202D202E
:1016D0002731273B0D0A47657420626F6F746C6F6A
:1016E000616465722076657273696F6E202D2027A4
:1016F00032273B0D0A577269746520746F206D653F
:101700006D6F727920283220627974657329202DDB
:10171000202733273B0D0A4572617365202D202752
:1017200034272E000D0A436869702049443A20008E
:101730000D0A426F6F746C6F61646572207665721A
:0817400073696F6E3A2000008E
:04174800B5010008DF
:04174C008D01000803
:10175000F40100003400002001000000100000002F
:041760000024F4006D
:04000005080003AD3F
:00000001FF
