:020000040800F2
:1000000000500020ED030008000000000000000088
:1000100000000000000000000000000000000000E0
:1000200000000000000000000000000000000000D0
:100030000000000000000000000000003D04000877
:1000400000500020491500082D0400082F04000866
:1000500031040008330400083504000800000000E3
:10006000000000000000000000000000370400084D
:1000700039040008000000003B0400083D040008AB
:1000800091150008911500089115000891150008B8
:1000900091150008911500089115000891150008A8
:1000A0009115000891150008911500089115000898
:1000B0009115000891150008911500089115000888
:1000C0009115000891150008911500089115000878
:1000D0009115000891150008911500089115000868
:1000E0009115000891150008911500089115000858
:1000F0009115000891150008911500089115000848
:100100009115000891150008911500089115000837
:100110009115000891150008911500089115000827
:1001200091150008911500089115000800000000C5
:1001300000000000000000000000000000000000BF
:0C01400000000000000000005FF808F163
:10014C000348044B834202D0034B03B1184770475A
:10015C001400002014000020000000000548064B8D
:10016C001B1AD90F01EBA301491002D0034B03B1A9
:10017C0018477047140000201400002000000000F5
:10018C0010B5064C237843B9FFF7DAFF044B13B1D3
:10019C000448AFF300800123237010BD140000202D
:1001AC00000000000816000808B5054B1BB10549F6
:1001BC000548AFF30080BDE80840FFF7CFBF00BF94
:1001CC0000000000180000200816000870B588B068
:1001DC00002404940594069407941D4B9A6942F0EC
:1001EC0010029A619A6902F010020192019A9A69BE
:1001FC0042F008029A619A6902F008020292029A8D
:10020C009A6942F004029A619B6903F00403039318
:10021C00039B104E22464FF40051304600F0B1FEC5
:10022C004FF400530493012305930694022507957C
:10023C0004A9304600F012FD4FF48053049305944A
:10024C00069504A9044800F009FD08B070BD00BF74
:10025C000010024000100140000C014008B500F0F5
:10026C00B7F9084B1B68C01AB0F5FA7F00D208BD6D
:10027C0000F0AEF9034B18604FF40051024800F047
:10028C0086FEF4E7000000200010014008B54FF492
:10029C000051034800F07BFE962000F09FF9F6E732
:1002AC000010014008B50A480A4B03604FF4E133D3
:1002BC00436000238360C36003610C22426183614D
:1002CC00C36100F063FF00B908BDFFF7DFFF00BF9B
:1002DC00300000200038014008B5124B1A68124B50
:1002EC009A4201D0FFF7D2FF104800F07FFF4FF485
:1002FC0000510F4800F0C0FD4FF480510D4800F044
:10030C00BBFD00F011F972B6064B1A6882F308882F
:10031C00BFF35F8F084A9360BFF34F8F103398473A
:10032C00FFF7B4FF00A000080050002030000020B0
:10033C0000100140000C014000ED00E000B591B050
:10034C002822002106A801F051F900230193029301
:10035C000393049305930223069301230A9310231A
:10036C000B9306A800F06CF968B90F2301930021D8
:10037C00029103910491059101A800F093FB20B91F
:10038C0011B05DF804FBFFF781FFFFF77FFF000062
:10039C0010B500F0FFF8FFF7D1FFFFF717FF00F0E3
:1003AC0017F904464FF480510C4800F0E3FD012886
:1003BC0001D0FFF791FFFFF775FF01F067F8FFF72A
:1003CC004DFF00F005F9031B632BF8D901F070F811
:1003DC000328F4D000F0FCF80446F0E7000C0140D0
:1003EC0008B50A4B0A4A03E052F8041B43F8041BF5
:1003FC0008498B42F8D3084B02E0002243F8042B47
:10040C00064A9342F9D3FFF7C3FF00BF0000002058
:10041C001C1700081400002014000020E00000202D
:10042C00FEE7FEE7FEE7FEE7FEE770477047704722
:10043C0008B500F0C1F808BD82B00E4B9A6942F0C5
:10044C0001029A619A6902F001020092009ADA693B
:10045C0042F08052DA61DB6903F080530193019B17
:10046C00054A536823F0E06343F00073536002B015
:10047C00704700BF001002400000014010B586B06C
:10048C00002302930393049305930268174B9A423B
:10049C0001D006B010BD03F558439A6942F480426E
:1004AC009A619A6902F480420092009A9A6942F029
:1004BC0004029A619B6903F004030193019B4FF4BE
:1004CC00007302930223039303230593084C02A9A0
:1004DC00204600F0C3FB4FF4806302930023039388
:1004EC00049302A9204600F0B9FBD2E70038014082
:1004FC000008014008B50268074B9A4200D008BDBD
:10050C00064A936923F4804393614FF4C061044815
:10051C0000F0B2FCF3E700BF0038014000100240CD
:10052C00000801407047000010B5064B4FF0FF3239
:10053C001A6100241C61DA60DC60FFF7F3FF2046CF
:10054C0010BD00BF0010024010B504460E4B1A78C7
:10055C004FF47A73B3FBF2F30C4A1068B0FBF3F070
:10056C0000F074FD68B90F2C01D901200AE00022BB
:10057C0021464FF0FF3000F059FD054B1C60002068
:10058C0000E0012010BD00BF08000020100000207A
:10059C000C00002008B5074A136843F010031360E1
:1005AC00032000F031FD0F20FFF7CEFFFFF744FFD3
:1005BC00002008BD00200240034A1168034B1B7841
:1005CC000B441360704700BF780000200800002027
:1005DC00014B1868704700BF7800002038B50446FE
:1005EC00FFF7F6FF0546B4F1FF3F02D0044B1B7832
:1005FC001C44FFF7EDFF401BA042FAD338BD00BFEF
:10060C0008000020024B1868C0F30B00704700BFB5
:10061C00002004E082B0084B1B68084AA2FB0323AD
:10062C005B0A00FB03F3019300BF019B5A1E01926E
:10063C00002BF9D102B0704710000020D34D62108E
:10064C00002800F0F18170B582B00446036813F005
:10065C00010F2CD0994B5B6803F00C03042B1DD0BD
:10066C00964B5B6803F00C03082B12D06368B3F550
:10067C00803F41D0002B55D103F1804303F5043367
:10068C001A6822F480321A601A6822F480221A60E6
:10069C0037E08A4B5B6813F4803FE7D0874B1B68CD
:1006AC0013F4003F03D06368002B00F0BF81236874
:1006BC0013F0020F75D0814B5B6813F00C0F5FD0F9
:1006CC007E4B5B6803F00C03082B54D02369002B82
:1006DC0000F08A807A4B01221A60FFF779FF0546F9
:1006EC00764B1B6813F0020F75D1FFF771FF401B9F
:1006FC000228F5D903209EE1704A136843F4803335
:10070C001360636843B3FFF763FF05466B4B1B68CD
:10071C0013F4003FCBD1FFF75BFF401B6428F5D9E6
:10072C00032088E1B3F5A02F09D0644B1A6822F49A
:10073C0080321A601A6822F480221A60E1E703F111
:10074C008043A3F53C331A6842F480221A601A687D
:10075C0042F480321A60D4E7FFF73AFF0546574B54
:10076C001B6813F4003FA2D0FFF732FF401B642834
:10077C00F5D903205FE1514B5B6813F4803FA5D1A1
:10078C004E4B1B6813F0020F03D02369012B40F072
:10079C004F814A4A136823F0F803616943EAC103A5
:1007AC001360236813F0080F33D0A369002B5CD0BF
:1007BC00434B0122C3F88024FFF70AFF05463F4B49
:1007CC005B6A13F0020F21D1FFF702FF401B0228D6
:1007DC00F5D903202FE1394A136823F0F803616936
:1007EC0043EAC1031360DCE7354B00221A60FFF7C4
:1007FC00EFFE0546314B1B6813F0020FD1D0FFF70B
:10080C00E7FE401B0228F5D9032014E10120FFF775
:10081C0001FF236813F0040F00F09680274BDB696F
:10082C0013F0805F34D1254BDA6942F08052DA61E3
:10083C00DB6903F080530193019B0125214B1B685D
:10084C0013F4807F26D0E368012B3DD0002B53D1CD
:10085C0003F1804303F504331A6A22F001021A6291
:10086C001A6A22F004021A6233E0154B0022C3F814
:10087C008024FFF7ADFE0546104B5B6A13F0020FA8
:10088C00C7D0FFF7A5FE401B0228F5D90320D2E004
:10089C000025D3E70B4A136843F480731360FFF70A
:1008AC0097FE0646074B1B6813F4807FCBD1FFF7EE
:1008BC008FFE801B6428F5D90320BCE00010024099
:1008CC0000004242007000405F4A136A43F001038B
:1008DC001362E36833B3FFF77BFE06465A4B1B6A81
:1008EC0013F0020F2FD1FFF773FE801B41F28833F8
:1008FC009842F3D903209EE0052B09D0524B1A6A7B
:10090C0022F001021A621A6A22F004021A62E0E76B
:10091C004D4B1A6A42F004021A621A6A42F0010242
:10092C001A62D6E7FFF754FE0646474B1B6A13F0D4
:10093C00020F08D0FFF74CFE801B41F2883398421F
:10094C00F3D9032077E0E5B9E369002B72D03E4A76
:10095C00526802F00C02082A56D0022B17D03B4BDF
:10096C0000221A66FFF734FE0446374B1B6813F05F
:10097C00007F47D0FFF72CFE001B0228F5D903207F
:10098C0059E0314AD36923F08053D361DCE72F4B14
:10099C0000221A66FFF71CFE05462B4B1B6813F052
:1009AC00007F06D0FFF714FE401B0228F5D9032068
:1009BC0041E0236AB3F5803F1AD023494B6823F4F6
:1009CC007413226A606A024313434B601F4B01226B
:1009DC001A66FFF7FDFD04461B4B1B6813F0007FE6
:1009EC000ED1FFF7F5FD001B0228F5D9032022E0FC
:1009FC00154A536823F40033A1680B435360DCE7BA
:100A0C00002018E0002016E0012B16D00E4B5B687E
:100A1C0003F48031226A914211D103F47013626A9B
:100A2C0093420ED1002006E001207047012002E025
:100A3C00012000E0002002B070BD0120FBE7012086
:100A4C00F9E70120F7E700BF001002400000424226
:100A5C000F4B5B6803F00C02082A01D00D4870475D
:100A6C00C3F383420C49885C13F4803F0BD0084BD2
:100A7C005B68C3F34043094AD35C064A02FB00F0AF
:100A8C00B0FBF3F07047064B03FB00F0704700BF60
:100A9C000010024000127A002416000820160008EC
:100AAC0000093D00002800F0A08070B50D460446FA
:100ABC00524B1B6803F007038B420BD24F4A13684F
:100ACC0023F007030B431360136803F007038B42F7
:100ADC0040F08D80236813F0020F17D013F0040F31
:100AEC0004D0474A536843F4E0635360236813F01F
:100AFC00080F04D0424A536843F460535360404A91
:100B0C00536823F0F003A1680B435360236813F080
:100B1C00010F31D06368012B20D0022B25D0384A2D
:100B2C00126812F0020F64D035494A6822F00302B1
:100B3C0013434B60FFF74CFD0646314B5B6803F0EB
:100B4C000C036268B3EB820F16D0FFF741FD801BDC
:100B5C0041F288339842F0D9032045E0284A1268C4
:100B6C0012F4003FE0D101203EE0254A126812F059
:100B7C00007FD9D1012037E0204B1B6803F007031D
:100B8C00AB420AD91D4A136823F007032B431360A9
:100B9C00136803F00703AB422DD1236813F0040F45
:100BAC0006D0174A536823F4E063E1680B435360A3
:100BBC00236813F0080F07D0114A536823F46053CD
:100BCC00216943EAC1035360FFF742FF0C4B5B689A
:100BDC00C3F303130B4AD35CD8400B4B18600B4B7D
:100BEC001868FFF7B1FC002070BD01207047012090
:100BFC00FAE70120F8E70120F6E700BF00200240E9
:100C0C00001002403C160008100000200C000020D0
:100C1C00014B1868704700BF1000002008B5FFF7A3
:100C2C00F7FF044B5B68C3F30223034AD35CD84041
:100C3C0008BD00BF001002403416000808B5FFF7CD
:100C4C00E7FF044B5B68C3F3C223034AD35CD84071
:100C5C0008BD00BF001002403416000870B582B009
:100C6C000024A446A1E07E4DAB4214D00CD8A5F5CF
:100C7C008015AB420FD005F57025AB420BD0A5F516
:100C8C008015AB4210D106E0764DAB4203D005F592
:100C9C008035AB4208D18B68002B50D0012B49D04A
:100CAC004261082400E0CC68BEF1FF0F49D806462B
:100CBC004FEA8C0233680F25954023EA050304FAAA
:100CCC0002F2134333604B6813F0805F6BD0664BBA
:100CDC009A6942F001029A619B6903F00103019346
:100CEC00019B4FEA9C02951C604B53F825600CF05D
:100CFC000305AD000F23AB4026EA03065C4B98427C
:100D0C0026D003F58063984200F08C8003F5806355
:100D1C00984200F0898003F58063984216D0042332
:100D2C0017E0CC680434BFE7CC680834BCE7CC6867
:100D3C000C34B9E702610824B6E70024B4E70424B4
:100D4C00B2E7061DACF108029200B3E7032300E002
:100D5C000023AB4033430232444D45F822304B68FC
:100D6C0013F4801F62D0434A936843EA0E039360E6
:100D7C004B6813F4001F5FD03E4AD36843EA0E035E
:100D8C00D3604B6813F4003F5CD03A4A536843EA93
:100D9C000E0353604B6813F4803F59D0354A1368E7
:100DAC0043EA0E0313600CF1010C0B6833FA0CF2DE
:100DBC0054D0012202FA0CF203EA020E32EA0303C7
:100DCC00F1D14B68122B3FF64EAF122B3FF66CAFA6
:100DDC0001A555F823F000BFA30C0008B30C0008C4
:100DEC00350D0008470D0008B50C0008B50C0008BF
:100DFC00B50C0008B50C0008B50C0008B50C0008C3
:100E0C00B50C0008B50C0008B50C0008B50C0008B2
:100E1C00B50C0008B50C0008B50C00082F0D000827
:100E2C003B0D0008012394E7022392E7114A9368D3
:100E3C0023EA0E0393609BE70E4AD36823EA0E0362
:100E4C00D3609EE70B4A536823EA0E035360A1E775
:100E5C00084A136823EA0E031360A4E702B070BDBE
:100E6C000000221000003110001002400000014070
:100E7C00000801400004014000226BE0032500E063
:100E8C00002505FA04F4644542D0FF2B5AD8864657
:100E9C009500DEF800404FF00F0C0CFA05FC24EA2C
:100EAC000C044FF0040C0CFA05FC44EA0C04CEF8CC
:100EBC000040C46824EA0303C360013231FA02F330
:100ECC0046D0012393400B40F7D09608B51C264C16
:100EDC0054F8255002F00304A4004FF00F0C0CFA48
:100EEC0004FE0EEA050C214DA842C9D005F580651B
:100EFC00A84209D005F58065A84207D005F58065A4
:100F0C00A842BBD00425BCE70125BAE70225B8E707
:100F1C00174C256825EA03052560656825EA030555
:100F2C006560E56825EA0305E560A56825EA030523
:100F3C00A5600D4FB41C57F8245025EA0E0547F850
:100F4C002450A2E700F1040EA2F10805AD00A0E7C1
:100F5C00F0BD013231FA02F305D0012393400B406E
:100F6C00F7D0F0B5B1E77047000001400008014030
:100F7C00000401408368194201D001207047002011
:100F8C0070470AB101617047090401617047C36879
:100F9C0001EA030221EA030141EA024101617047BF
:100FAC00002808DB0901C9B200F1604000F561407E
:100FBC0080F80013704700F00F000901C9B2014B13
:100FCC001954704714ED00E000B500F00700C0F1B3
:100FDC00070CBCF1040F28BF4FF0040C031D062BAB
:100FEC000FD9C31E4FF0FF3E0EFA0CF021EA0001A0
:100FFC0099400EFA03FE22EA0E0241EA02005DF865
:10100C0004FB0023EEE70000074AD36823F4E063F7
:10101C001B041B0C000200F4E060034343F0BF63AD
:10102C0043F40033D360704700ED00E010B5044684
:10103C00054BD868C0F30220FFF7C6FF01462046D7
:10104C00FFF7AEFF10BD00BF00ED00E00138B0F1BE
:10105C00807F0BD24FF0E0235861054AF02182F8D3
:10106C0023100020986107221A61704701207047F5
:10107C0000ED00E010B504460268136923F44053F8
:10108C00C1680B43136183680269134342691A43B5
:10109C000168CB6823F4B05323F00C031343CB60EB
:1010AC000268536923F4407381690B4353610268EE
:1010BC00134B9A4220D0FFF7B1FD024602EB82029D
:1010CC0002EB820263689B00B2FBF3F20D48A0FBBB
:1010DC0002314909642303FB11231B013233A0FBAA
:1010EC0003035B0903F0F00202EB011203F00F03A0
:1010FC00216813448B6010BDFFF7A0FD0246DDE7AD
:10110C00003801401F85EB512DE9F84305460F4689
:10111C0016469946DDF820802B681C6837EA0404D3
:10112C000CBF01240024B4422DD1B8F1FF3FF3D001
:10113C00B8F1000F05D0FFF74BFAA0EB09004045C2
:10114C00EAD92A6802F10C0353E8003F23F4D07368
:10115C000C3242E800310029F3D12A6802F1140361
:10116C0053E8003F23F00103143242E80031002918
:10117C00F3D1202385F8413085F84230002385F8DF
:10118C004030032000E00020BDE8F88360B310B5C8
:10119C00044690F8413013B3242384F8413022687C
:1011AC00D36823F40053D3602046FFF763FF226813
:1011BC00136923F4904313612268536923F02A03C3
:1011CC0053612268D36843F40053D36000206064F9
:1011DC00202384F8413084F84230606310BD80F8DD
:1011EC004030FFF74BF9D7E701207047B0B110B58D
:1011FC000446242380F841300268D36823F400535A
:10120C00D360FFF777F90020606484F8410084F81C
:10121C0042002063606384F8400010BD01207047D9
:10122C002DE9F04182B01E4690F84130DBB2202B04
:10123C004BD104460D46904600294AD00AB90120EC
:10124C0044E000234364212380F84130FFF7C0F9C8
:10125C000746A4F82480A4F82680A368B3F5805F21
:10126C0002D04FF000080FE02369FBB14FF00008EB
:10127C000AE038F8023B2268C3F308035360E28C9F
:10128C0092B2013A92B2E284E38C9BB28BB100969B
:10129C003B46002280212046FFF736FFD8B9002DAF
:1012AC00E7D015F8012B23685A60E8E7A84600251B
:1012BC00EAE700963B46002240212046FFF724FF38
:1012CC0058B9202384F8413000E0022002B0BDE878
:1012DC00F0810120FAE70320F8E70320F6E72DE977
:1012EC00F04182B01E4690F84230DBB2202B53D135
:1012FC0004460D469046002952D00AB901204CE014
:10130C0000234364222280F842200363FFF760F934
:10131C000746A4F82C80A4F82E80A368B3F5805F50
:10132C0002D04FF0000817E0236913B14FF000080A
:10133C0012E0A84600250FE023685B68C3F308039E
:10134C0028F8023B03E023685B682B700135E28DC3
:10135C0092B2013A92B2E285E38D9BB2BBB1009698
:10136C003B46002220212046FFF7CEFED0B9002DAF
:10137C00E2D0A368B3F5805FE5D013B92369002BE5
:10138C00E1D023685B6803F07F032B70DEE720233A
:10139C0084F84230002000E0022002B0BDE8F08169
:1013AC000120FAE70320F8E77047000038B504463F
:1013BC0064252A46034900F00BF92946204600F023
:1013CC00ADF838BD4C16000838B504460C4D0FCDA1
:1013DC0020606160A260E36028682061AB88A38212
:1013EC001621204600F09AF8302323702E236370C8
:1013FC003123A3700321204600F090F838BD00BFC4
:10140C00B416000810B504461E4B03CB2060616077
:10141C001A889B782281A3720B21204600F07EF85B
:10142C0000F088F80021184BA3FB0023DB089C4636
:10143C0003EB8303A0EB43033033635401310346C6
:10144C006046092BEFD80022625410E0881A01384C
:10145C00A35C14F800C083EA0C03A35414F800C076
:10146C0083EA0C032354A05C4340A354013201EBE8
:10147C00D173B2EB630FE9DBC9B2204600F04EF832
:10148C0010BD00BFCC160008CDCCCCCC10B5332190
:10149C00054800F043F804460521044800F03EF8E6
:1014AC002043C0B210BD00BFD81600080C170008AE
:1014BC0038B50121114800F025F8032815D00F4D3F
:1014CC000121284600F02AF804462B78312B0DD048
:1014DC00322B0FD0302B02D12846FFF767FF0421A7
:1014EC00074800F01BF82043C0B238BD0348FFF793
:1014FC0089FFF4E70148FFF767FFF0E77C00002065
:10150C000C17000808B50A46642301460248006817
:10151C00FFF7E5FE08BD00BF0400002008B50A4631
:10152C006423014602480068FFF77AFE08BD00BF3D
:10153C000400002008B5FFF765F808BDFFF734FF7D
:10154C000B480C490C4A002302E0D458C450043315
:10155C00C4188C42F9D3094A094C002301E01360EA
:10156C000432A242FBD300F00FF8FEF711FF7047D4
:10157C0000000020140000201C170008140000209C
:10158C00E0000020FEE7000070B500260C4D0D4C6D
:10159C00641BA410A64209D100F030F800260A4DB5
:1015AC000A4C641BA410A64205D170BD55F8043B2F
:1015BC0098470136EEE755F8043B98470136F2E7B9
:1015CC00141700081417000814170008181700083F
:1015DC000A44914200F1FF3300D1704710B511F865
:1015EC00014B914203F8014FF9D110BD034602445F
:1015FC00934200D1704703F8011BF9E7F8B500BF1F
:10160C00F8BC08BC9E467047F8B500BFF8BC08BCD7
:04161C009E4670472F
:101620000102000002030405060708090A0B0C0D5D
:101630000E0F101000000000010203040000000063
:101640000000000001020304060708090D0A436FA9
:101650006D6D616E64733A0D0A476574206964208C
:101660006F662063686970202D202731273B0D0AA3
:1016700047657420626F6F746C6F61646572207669
:10168000657273696F6E202D202732273B0D0A5239
:101690006561642066726F6D206D656D6F72792073
:1016A000283820627974657329202D202733272E4E
:1016B000000000000D0A426F6F746C6F6164657208
:1016C0002076657273696F6E3A2000000D0A4368D8
:1016D00069702049443A20002D466C65787950693C
:1016E00078656C20426F6F746C6F616465722E2038
:1016F000547970652027302720666F7220636F6DE4
:101700006D616E6473206C69737400000D0A3E3E57
:0417100000000000D5
:04171400B501000813
:041718008D01000837
:10171C00F401000030000020010000001000000067
:04172C000024F400A1
:04000005080003EDFF
:00000001FF
