:020000040800F2
:1000000000500020F903000800000000000000007C
:1000100000000000000000000000000000000000E0
:1000200000000000000000000000000000000000D0
:10003000000000000000000000000000490400086B
:100040000050002075190008390400083B0400081E
:100050003D0400083F0400084104000800000000BF
:100060000000000000000000000000004304000841
:100070004504000800000000470400084904000887
:10008000BD190008BD190008BD190008BD190008F8
:10009000BD190008BD190008BD190008BD190008E8
:1000A000BD190008BD190008BD190008BD190008D8
:1000B000BD190008BD190008BD190008BD190008C8
:1000C000BD190008BD190008BD190008BD190008B8
:1000D000BD190008BD190008BD190008BD190008A8
:1000E000BD190008BD190008BD190008BD19000898
:1000F000BD190008BD190008BD190008BD19000888
:10010000BD190008BD190008BD190008BD19000877
:10011000BD190008BD190008BD190008BD19000867
:10012000BD190008BD190008BD1900080000000035
:1001300000000000000000000000000000000000BF
:0C01400000000000000000005FF808F163
:10014C000348044B834202D0034B03B1184770475A
:10015C001400002014000020000000000548064B8D
:10016C001B1AD90F01EBA301491002D0034B03B1A9
:10017C0018477047140000201400002000000000F5
:10018C0010B5064C237843B9FFF7DAFF044B13B1D3
:10019C000448AFF300800123237010BD1800002029
:1001AC0000000000341A000808B5054B1BB10549C6
:1001BC000548AFF30080BDE80840FFF7CFBF00BF94
:1001CC00000000001C000020341A000870B588B034
:1001DC00002404940594069407941D4B9A6942F0EC
:1001EC0010029A619A6902F010020192019A9A69BE
:1001FC0042F008029A619A6902F008020292029A8D
:10020C009A6942F004029A619B6903F00403039318
:10021C00039B104E22464FF40051304600F09FFED7
:10022C004FF400530493012305930694022507957C
:10023C0004A9304600F000FD4FF48053049305945C
:10024C00069504A9044800F0F7FC08B070BD00BF87
:10025C000010024000100140000C014008B500F0F5
:10026C00A5F9084B1B68C01AB0F5FA7F00D208BD7F
:10027C0000F09CF9034B18604FF40051024800F059
:10028C0074FEF4E7000000200010014008B54FF4A4
:10029C000051034800F069FE962000F08DF9F6E756
:1002AC000010014008B50A480A4B03604FF4E133D3
:1002BC00436000238360C36003610C22426183614D
:1002CC00C36101F0B5F800B908BDFFF7DFFF00BF4F
:1002DC00340000200038014008B5144BD3F8002836
:1002EC00134B9A4201D0FFF7D1FF4FF40051114844
:1002FC0000F0B0FD4FF480510F4800F0ABFD00F062
:10030C0001F90E4B00229A60084BD3F8002882F3B7
:10031C000888BFF35F8F0A4A0A499160BFF34F8F79
:10032C00D3F804389847FFF7B1FF00BF002000084E
:10033C000050002000100140000C01400010024051
:10034C0000ED00E00028000800B591B02822002143
:10035C0006A801F061FB002301930293039304931D
:10036C0005930223069301230A9310230B9306A8EB
:10037C0000F054F968B90F23019300210291039105
:10038C000491059101A800F07BFB20B911B05DF838
:10039C0004FBFFF77BFFFFF779FF000010B500F0BF
:1003AC00E7F8FFF7D1FFFFF711FF00F0FFF8044665
:1003BC004FF480510C4800F0CBFD012801D0FFF721
:1003CC008BFFFFF76FFF01F005FAFFF747FF00F017
:1003DC00EDF8031BC72BF8D901F00EFA0328F4D063
:1003EC0000F0E4F80446F0E7000C014008B50A4BB5
:1003FC000A4A03E052F8041B43F8041B08498B42D9
:10040C00F8D3084B02E0002243F8042B064A93422F
:10041C00F9D3FFF7C3FF00BF00000020441B000806
:10042C00140000201800002004010020FEE7FEE765
:10043C00FEE7FEE7FEE770477047704708B500F02F
:10044C00A9F808BD82B00E4B9A6942F001029A617C
:10045C009A6902F001020092009ADA6942F0805225
:10046C00DA61DB6903F080530193019B054A536801
:10047C0023F0E06343F00073536002B0704700BF99
:10048C00001002400000014010B586B0002302931A
:10049C000393049305930268174B9A4201D006B05C
:1004AC0010BD03F558439A6942F480429A619A69E7
:1004BC0002F480420092009A9A6942F004029A6116
:1004CC009B6903F004030193019B4FF400730293A7
:1004DC000223039303230593084C02A9204600F042
:1004EC00ABFB4FF48063029300230393049302A9A4
:1004FC00204600F0A1FBD2E7003801400008014083
:10050C007047000010B5064B4FF0FF321A61002403
:10051C001C61DA60DC60FFF7F3FF204610BD00BF02
:10052C000010024010B504460E4B1A784FF47A7343
:10053C00B3FBF2F30C4A1068B0FBF3F000F074FD5F
:10054C0068B90F2C01D901200AE0002221464FF096
:10055C00FF3000F059FD054B1C60002000E001202D
:10056C0010BD00BF08000020100000200C0000206F
:10057C0008B5074A136843F010031360032000F01A
:10058C0031FD0F20FFF7CEFFFFF75CFF002008BD09
:10059C0000200240034A1168034B1B780B44136084
:1005AC00704700BF7C00002008000020014B186839
:1005BC00704700BF7C00002038B50446FFF7F6FFFB
:1005CC000546B4F1FF3F02D0044B1B781C44FFF7E7
:1005DC00EDFF401BA042FAD338BD00BF080000203D
:1005EC00024B1868C0F30B00704700BF002004E0FA
:1005FC0082B0084B1B68084AA2FB03235B0A00FB72
:10060C0003F3019300BF019B5A1E0192002BF9D1F9
:10061C0002B0704710000020D34D6210002800F08B
:10062C00F18170B582B00446036813F0010F2CD031
:10063C00994B5B6803F00C03042B1DD0964B5B6845
:10064C0003F00C03082B12D06368B3F5803F41D044
:10065C00002B55D103F1804303F504331A6822F4BF
:10066C0080321A601A6822F480221A6037E08A4BB2
:10067C005B6813F4803FE7D0874B1B6813F4003F93
:10068C0003D06368002B00F0BF81236813F0020FC6
:10069C0075D0814B5B6813F00C0F5FD07E4B5B68A1
:1006AC0003F00C03082B54D02369002B00F08A8034
:1006BC007A4B01221A60FFF779FF0546764B1B68CF
:1006CC0013F0020F75D1FFF771FF401B0228F5D90B
:1006DC0003209EE1704A136843F48033136063680F
:1006EC0043B3FFF763FF05466B4B1B6813F4003FE6
:1006FC00CBD1FFF75BFF401B6428F5D9032088E1C1
:10070C00B3F5A02F09D0644B1A6822F480321A601A
:10071C001A6822F480221A60E1E703F18043A3F502
:10072C003C331A6842F480221A601A6842F4803210
:10073C001A60D4E7FFF73AFF0546574B1B6813F4D2
:10074C00003FA2D0FFF732FF401B6428F5D90320ED
:10075C005FE1514B5B6813F4803FA5D14E4B1B6896
:10076C0013F0020F03D02369012B40F04F814A4A4A
:10077C00136823F0F803616943EAC103136023682B
:10078C0013F0080F33D0A369002B5CD0434B01222C
:10079C00C3F88024FFF70AFF05463F4B5B6A13F052
:1007AC00020F21D1FFF702FF401B0228F5D90320CD
:1007BC002FE1394A136823F0F803616943EAC10356
:1007CC001360DCE7354B00221A60FFF7EFFE05469D
:1007DC00314B1B6813F0020FD1D0FFF7E7FE401B23
:1007EC000228F5D9032014E10120FFF701FF23684B
:1007FC0013F0040F00F09680274BDB6913F0805F39
:10080C0034D1254BDA6942F08052DA61DB6903F0AE
:10081C0080530193019B0125214B1B6813F4807FAE
:10082C0026D0E368012B3DD0002B53D103F180433C
:10083C0003F504331A6A22F001021A621A6A22F0D2
:10084C0004021A6233E0154B0022C3F88024FFF730
:10085C00ADFE0546104B5B6A13F0020FC7D0FFF7D5
:10086C00A5FE401B0228F5D90320D2E00025D3E7D2
:10087C000B4A136843F480731360FFF797FE064628
:10088C00074B1B6813F4807FCBD1FFF78FFE801BC7
:10089C006428F5D90320BCE000100240000042425D
:1008AC00007000405F4A136A43F001031362E3686F
:1008BC0033B3FFF77BFE06465A4B1B6A13F0020F4D
:1008CC002FD1FFF773FE801B41F288339842F3D986
:1008DC0003209EE0052B09D0524B1A6A22F001022C
:1008EC001A621A6A22F004021A62E0E74D4B1A6A85
:1008FC0042F004021A621A6A42F001021A62D6E746
:10090C00FFF754FE0646474B1B6A13F0020F08D044
:10091C00FFF74CFE801B41F288339842F3D9032039
:10092C0077E0E5B9E369002B72D03E4A526802F0D9
:10093C000C02082A56D0022B17D03B4B00221A6609
:10094C00FFF734FE0446374B1B6813F0007F47D08B
:10095C00FFF72CFE001B0228F5D9032059E0314A81
:10096C00D36923F08053D361DCE72F4B00221A6646
:10097C00FFF71CFE05462B4B1B6813F0007F06D0BF
:10098C00FFF714FE401B0228F5D9032041E0236A2F
:10099C00B3F5803F1AD023494B6823F47413226AB1
:1009AC00606A024313434B601F4B01221A66FFF728
:1009BC00FDFD04461B4B1B6813F0007F0ED1FFF7A7
:1009CC00F5FD001B0228F5D9032022E0154A5368D7
:1009DC0023F40033A1680B435360DCE7002018E0DC
:1009EC00002016E0012B16D00E4B5B6803F480310F
:1009FC00226A914211D103F47013626A93420ED1B0
:100A0C00002006E001207047012002E0012000E0F8
:100A1C00002002B070BD0120FBE70120F9E70120A6
:100A2C00F7E700BF00100240000042420F4B5B682A
:100A3C0003F00C02082A01D00D487047C3F383421F
:100A4C000C49885C13F4803F0BD0084B5B68C3F3F4
:100A5C004043094AD35C064A02FB00F0B0FBF3F0BA
:100A6C007047064B03FB00F0704700BF00100240BC
:100A7C0000127A00501A00084C1A000800093D00B8
:100A8C00002800F0A08070B50D460446524B1B6840
:100A9C0003F007038B420BD24F4A136823F0070372
:100AAC000B431360136803F007038B4240F08D80F7
:100ABC00236813F0020F17D013F0040F04D0474A29
:100ACC00536843F4E0635360236813F0080F04D0B9
:100ADC00424A536843F460535360404A536823F0CE
:100AEC00F003A1680B435360236813F0010F31D05E
:100AFC006368012B20D0022B25D0384A126812F0E3
:100B0C00020F64D035494A6822F0030213434B604C
:100B1C00FFF74CFD0646314B5B6803F00C03626833
:100B2C00B3EB820F16D0FFF741FD801B41F28833E7
:100B3C009842F0D9032045E0284A126812F4003F8D
:100B4C00E0D101203EE0254A126812F0007FD9D195
:100B5C00012037E0204B1B6803F00703AB420AD996
:100B6C001D4A136823F007032B431360136803F02B
:100B7C000703AB422DD1236813F0040F06D0174A9C
:100B8C00536823F4E063E1680B435360236813F06C
:100B9C00080F07D0114A536823F46053216943EAC4
:100BAC00C1035360FFF742FF0C4B5B68C3F30313A5
:100BBC000B4AD35CD8400B4B18600B4B1868FFF7F3
:100BCC00B1FC002070BD012070470120FAE7012024
:100BDC00F8E70120F6E700BF0020024000100240B9
:100BEC00681A0008100000200C000020014B186847
:100BFC00704700BF1000002008B5FFF7F7FF044B4B
:100C0C005B68C3F30223034AD35CD84008BD00BF22
:100C1C0000100240601A000808B5FFF7E7FF044B0C
:100C2C005B68C3F3C223034AD35CD84008BD00BF42
:100C3C0000100240601A000870B582B00024A4466F
:100C4C00A1E07E4DAB4214D00CD8A5F58015AB427B
:100C5C000FD005F57025AB420BD0A5F58015AB4236
:100C6C0010D106E0764DAB4203D005F58035AB4292
:100C7C0008D18B68002B50D0012B49D0426108243D
:100C8C0000E0CC68BEF1FF0F49D806464FEA8C0253
:100C9C0033680F25954023EA050304FA02F2134347
:100CAC0033604B6813F0805F6BD0664B9A6942F0EF
:100CBC0001029A619B6903F001030193019B4FEAC6
:100CCC009C02951C604B53F825600CF00305AD009D
:100CDC000F23AB4026EA03065C4B984226D003F563
:100CEC008063984200F08C8003F58063984200F09A
:100CFC00898003F58063984216D0042317E0CC68F2
:100D0C000434BFE7CC680834BCE7CC680C34B9E7D2
:100D1C0002610824B6E70024B4E70424B2E7061DF8
:100D2C00ACF108029200B3E7032300E00023AB40D0
:100D3C0033430232444D45F822304B6813F4801F84
:100D4C0062D0434A936843EA0E0393604B6813F4F2
:100D5C00001F5FD03E4AD36843EA0E03D3604B6852
:100D6C0013F4003F5CD03A4A536843EA0E035360D5
:100D7C004B6813F4803F59D0354A136843EA0E038D
:100D8C0013600CF1010C0B6833FA0CF254D00122F5
:100D9C0002FA0CF203EA020E32EA0303F1D14B68B9
:100DAC00122B3FF64EAF122B3FF66CAF01A555F848
:100DBC0023F000BF7F0C00088F0C0008110D0008F9
:100DCC00230D0008910C0008910C0008910C0008F0
:100DDC00910C0008910C0008910C0008910C000873
:100DEC00910C0008910C0008910C0008910C000863
:100DFC00910C0008910C00080B0D0008170D000851
:100E0C00012394E7022392E7114A936823EA0E0325
:100E1C0093609BE70E4AD36823EA0E03D3609EE7E8
:100E2C000B4A536823EA0E035360A1E7084A136880
:100E3C0023EA0E031360A4E702B070BD0000221079
:100E4C000000311000100240000001400008014079
:100E5C000004014000226BE0032500E0002505FAA8
:100E6C0004F4644542D0FF2B5AD886469500DEF830
:100E7C0000404FF00F0C0CFA05FC24EA0C044FF068
:100E8C00040C0CFA05FC44EA0C04CEF80040C468CF
:100E9C0024EA0303C360013231FA02F346D0012382
:100EAC0093400B40F7D09608B51C264C54F82550AF
:100EBC0002F00304A4004FF00F0C0CFA04FE0EEA2F
:100ECC00050C214DA842C9D005F58065A84209D072
:100EDC0005F58065A84207D005F58065A842BBD012
:100EEC000425BCE70125BAE70225B8E7174C2568AD
:100EFC0025EA03052560656825EA03056560E56854
:100F0C0025EA0305E560A56825EA0305A5600D4FF4
:100F1C00B41C57F8245025EA0E0547F82450A2E7D4
:100F2C0000F1040EA2F10805AD00A0E7F0BD0132FE
:100F3C0031FA02F305D0012393400B40F7D0F0B502
:100F4C00B1E7704700000140000801400004014077
:100F5C008368194201D001207047002070470AB104
:100F6C0001617047090401617047C36801EA03021B
:100F7C0021EA030141EA024101617047002808DBC4
:100F8C000901C9B200F1604000F5614080F800131E
:100F9C00704700F00F000901C9B2014B195470479A
:100FAC0014ED00E000B500F00700C0F1070CBCF137
:100FBC00040F28BF4FF0040C031D062B0FD9C31EC2
:100FCC004FF0FF3E0EFA0CF021EA000199400EFAA8
:100FDC0003FE22EA0E0241EA02005DF804FB002344
:100FEC00EEE70000074AD36823F4E0631B041B0CF4
:100FFC00000200F4E060034343F0BF6343F40033AA
:10100C00D360704700ED00E010B50446054BD8687E
:10101C00C0F30220FFF7C6FF01462046FFF7AEFFE4
:10102C0010BD00BF00ED00E00138B0F1807F0BD2A5
:10103C004FF0E0235861054AF02182F8231000207C
:10104C00986107221A6170470120704700ED00E09B
:10105C00044B0022DA61044A136943F00103136163
:10106C00018070478000002000200240194BDB6893
:10107C0013F0100305D0184AD36943F00203D3616F
:10108C001023144AD26812F0040F06D01249CA6910
:10109C0042F00102CA6143F004030E4AD26912F015
:1010AC00010F09D00C49CA6942F00402CA6109490E
:1010BC00CA6922F00102CA6140F20112934202D0C5
:1010CC00044AD3607047034AD36923F00103D36108
:1010DC00704700BF00200240800000200A4B1B69B3
:1010EC0013F0800F0BD0084B084A5A6002F188327B
:1010FC005A601B6913F0800F03D100207047002049
:10110C0070470120704700BF002002402301674553
:10111C00034A136943F0800313610020704700BF3A
:10112C000020024038B50446FFF740FA0546164B3E
:10113C00DB6813F0010F0AD0B4F1FF3FF7D024B1F4
:10114C00FFF734FA401BA042F1D903201BE00E4BF1
:10115C00DB6813F0200F02D00B4B2022DA600A4B15
:10116C00DB6813F0100F0BD1074BDB6913F0010F89
:10117C0006D1054BDB6813F0040F01D1002002E00F
:10118C00FFF774FF012038BD002002402DE9F84321
:10119C001E46244B1B7E012B41D004460F46904625
:1011AC00204B01221A764CF25030FFF7BBFF03465E
:1011BC0078BB012C08D0022C03D04FF004091C463C
:1011CC0007E04FF00209FAE74FF00109F7E70134A5
:1011DC00E4B24C451DD22101C1F12002A1F1200342
:1011EC0028FA01F106FA02F2114326FA03F3194325
:1011FC0089B207EB4400FFF72BFF4CF25030FFF79E
:10120C0091FF094B1D6925F001051D61034600285E
:10121C00DDD0044A002111761846BDE8F88302237C
:10122C00FAE700BF8000002000200240064B00229D
:10123C00DA61064B1A6942F004021A611A6942F02B
:10124C0040021A61704700BF80000020002002405D
:10125C00064B0022DA61064B1A6942F002021A614F
:10126C0058611A6942F040021A61704780000020F0
:10127C0000200240264B1B7E012B46D070B5054644
:10128C000E46234B01221A760368022B20D04CF217
:10129C005030FFF747FF90BB4FF0FF333360AC6823
:1012AC000121EA68AB6803EB8223A34228D92046CC
:1012BC00FFF7CEFF4CF25030FFF734FF154A13699D
:1012CC0023F0020313610146B8B904F58064E8E722
:1012DC004CF25030FFF726FF08B1012110E001203D
:1012EC00FFF7A4FF4CF25030FFF71CFF0146094AF0
:1012FC00136923F00403136102E0346000E0012160
:10130C00034B00221A76084670BD0221084670472E
:10131C00800000200020024010B5044602681369CA
:10132C0023F44053C1680B43136183680269134370
:10133C0042691A430168CB6823F4B05323F00C03C1
:10134C001343CB600268536923F4407381690B43E8
:10135C0053610268134B9A4220D0FFF74DFC0246B2
:10136C0002EB820202EB820263689B00B2FBF3F297
:10137C000D48A0FB02314909642303FB11231B0117
:10138C003233A0FB03035B0903F0F00202EB011202
:10139C0003F00F03216813448B6010BDFFF73CFC76
:1013AC000246DDE7003801401F85EB512DE9F8437B
:1013BC0005460F4616469946DDF820802B681C68BA
:1013CC0037EA04040CBF01240024B4422DD1B8F137
:1013DC00FF3FF3D0B8F1000F05D0FFF7E7F8A0EB13
:1013EC0009004045EAD92A6802F10C0353E8003F92
:1013FC0023F4D0730C3242E800310029F3D12A686F
:10140C0002F1140353E8003F23F00103143242E8C5
:10141C0000310029F3D1202385F8413085F8423082
:10142C00002385F84030032000E00020BDE8F8835D
:10143C0060B310B5044690F8413013B3242384F8FC
:10144C0041302268D36823F40053D3602046FFF761
:10145C0063FF2268136923F4904313612268536974
:10146C0023F02A0353612268D36843F40053D360FA
:10147C0000206064202384F8413084F8423060639B
:10148C0010BD80F84030FEF7FFFFD7E70120704712
:10149C002DE9F04182B01E4690F84130DBB2202B92
:1014AC004BD104460D46904600294AD00AB901207A
:1014BC0044E000234364212380F84130FFF776F8A1
:1014CC000746A4F82480A4F82680A368B3F5805FAF
:1014DC0002D04FF000080FE02369FBB14FF0000879
:1014EC000AE038F8023B2268C3F308035360E28C2D
:1014FC0092B2013A92B2E284E38C9BB28BB1009629
:10150C003B46002280212046FFF750FFD8B9002D22
:10151C00E7D015F8012B23685A60E8E7A8460025A8
:10152C00EAE700963B46002240212046FFF73EFFAB
:10153C0058B9202384F8413000E0022002B0BDE805
:10154C00F0810120FAE70320F8E70320F6E72DE904
:10155C00F04182B01E4690F84230DBB2202B53D1C2
:10156C0004460D469046002952D00AB901204CE0A1
:10157C0000234364222280F842200363FFF716F80D
:10158C000746A4F82C80A4F82E80A368B3F5805FDE
:10159C0002D04FF0000817E0236913B14FF0000898
:1015AC0012E0A84600250FE023685B68C3F308032C
:1015BC0028F8023B03E023685B682B700135E28D51
:1015CC0092B2013A92B2E285E38D9BB2BBB1009626
:1015DC003B46002220212046FFF7E8FED0B9002D23
:1015EC00E2D0A368B3F5805FE5D013B92369002B73
:1015FC00E1D023685B6803F07F032B70DEE72023C8
:10160C0084F84230002000E0022002B0BDE8F081F6
:10161C000120FAE70320F8E77047000008B538B15D
:10162C00054BAA221A700121034800F047F908BDA6
:10163C00014B55221A70F6E7A000002038B5064C75
:10164C0063252A460549204600F0D8F9294620464C
:10165C0000F034F938BD00BFA0000020781A000853
:10166C0038B50F4DAC460F4C0FCCACE80F0094E8DE
:10167C0003004CF8040B2CF8021B090C8CF800101E
:10168C001721284600F01AF930232B702E236B708B
:10169C003123AB700321284600F010F938BD00BF90
:1016AC00A0000020DC1A000810B51E4B1E4A07CA09
:1016BC0083E807000C21184600F000F900F00AF945
:1016CC0000211A4BA3FB0023DB089C4603EB83038E
:1016DC00A0EB43033033134C635401310346604693
:1016EC00092BEED80022625412E00E48A1EB020C3A
:1016FC000CF1FF3C835C10F80C406340835410F8F1
:10170C000C40634000F80C30845C6340835401321D
:10171C0001EBD173B2EB630FE7DBC9B2014800F008
:10172C00CDF810BDA0000020F41A0008CDCCCCCC14
:10173C0010B582B000230193ADF8023004210DEBFB
:10174C00010000F0AFF80446FFF768FF14B1204623
:10175C0002B010BD02210DEB010000F0A3F8044310
:10176C00E4B22046FFF75AFF002CF0D1BDF802106E
:10177C00019800F0B3F80443E4B22046FFF74EFFA3
:10178C00E5E710B582B0002301938DF803300421F6
:10179C000DEB010000F086F80446FFF73FFF14B193
:1017AC00204602B010BD01210DF1030000F07AF8C3
:1017BC000443E4B22046FFF731FF002CF0D19DF832
:1017CC000310019800F0A4F80443E4B22046FFF79C
:1017DC0025FFE5E710B53321054800F06FF8044606
:1017EC000521044800F06AF82043C0B210BD00BFC8
:1017FC00001B0008341B000838B50121164800F006
:10180C0051F8032816D0144D0121284600F056F843
:10181C0004462B78303B042B06D8DFE803F0030C8E
:10182C000F121700FFF70AFF04210C4800F046F8CE
:10183C002043C0B238BDFFF737FFF5E7FFF710FFC5
:10184C00F2E7FFF775FF0443E4B2EDE7FFF799FF0A
:10185C000443E4B2E8E700BFA0000020341B0008FA
:10186C00064B984205D30230054B984203D3002017
:10187C007047002070470120704700BF0028000807
:10188C00FFFF0108C0F3090333B100F58060044B7E
:10189C00984203D201207047012070470020704706
:1018AC00FFFF010808B50A46C82301460248006834
:1018BC00FFF74DFE08BD00BF0400002008B50A4626
:1018CC00C823014602480068FFF7E2FD08BD00BFCF
:1018DC000400002008B5FEF783FE08BD70B5054670
:1018EC000E46FFF7BDFF80B1FFF7F8FB044668B961
:1018FC003246002329460220FFF748FC0443E4B299
:10190C00FFF706FC0443E4B200E00424204670BD5B
:10191C0070B586B005460E46FFF7A2FF00B3284609
:10192C00FFF7B0FFF0B1FFF7D9FB04460023029399
:10193C000122039204950596019301A902A8FFF7D1
:10194C0099FC2043C4B2019BB3F1FF3F03D044F098
:10195C00050006B070BDFFF7DBFB2043C0B2F8E713
:10196C000420F6E70420F4E7FFF756FE0B480C4979
:10197C000C4A002302E0D458C4500433C4188C42DF
:10198C00F9D3094A094C002301E013600432A24246
:10199C00FBD300F00FF8FEF701FD704700000020AC
:1019AC0014000020441B0008180000200401002033
:1019BC00FEE7000070B500260C4D0D4C641BA41006
:1019CC00A64209D100F030F800260A4D0A4C641BDF
:1019DC00A410A64205D170BD55F8043B98470136BA
:1019EC00EEE755F8043B98470136F2E73C1B00083C
:1019FC003C1B00083C1B0008401B00080A44914299
:101A0C0000F1FF3300D1704710B511F8014B914232
:101A1C0003F8014FF9D110BD03460244934200D1A3
:101A2C00704703F8011BF9E7F8B500BFF8BC08BC18
:101A3C009E467047F8B500BFF8BC08BC9E46704780
:101A4C000102000002030405060708090A0B0C0D2D
:101A5C000E0F101000000000010203040000000033
:101A6C000000000001020304060708090D0A436F79
:101A7C006D6D616E64733A0D0A476574206964205C
:101A8C006F662063686970202D202731273B0D0A73
:101A9C0047657420626F6F746C6F61646572207639
:101AAC00657273696F6E202D202732273B0D0A5704
:101ABC007269746520746F206D656D6F7279202862
:101ACC003220627974657329202D202733272E004C
:101ADC000D0A426F6F746C6F61646572207665726B
:101AEC0073696F6E3A2000000D0A436869702049D3
:101AFC00443A20002D466C657879506978656C20E5
:101B0C00426F6F746C6F616465722E2054797065CE
:101B1C002027302720666F7220636F6D6D616E64B5
:101B2C0073206C69737400000D0A3E3E00000000C7
:041B3C00B5010008E7
:041B40008D0100080B
:101B4400F401000034000020010000001000000037
:041B54000024F40075
:04000005080003F9F3
:00000001FF
